{
  "_format": "hh-sol-artifact-1",
  "contractName": "PKPNFT",
  "sourceName": "contracts/PKPNFT.sol",
  "abi": [
    {
      "inputs": [],
      "stateMutability": "nonpayable",
      "type": "constructor"
    },
    {
      "anonymous": false,
      "inputs": [
        {
          "indexed": true,
          "internalType": "address",
          "name": "owner",
          "type": "address"
        },
        {
          "indexed": true,
          "internalType": "address",
          "name": "approved",
          "type": "address"
        },
        {
          "indexed": true,
          "internalType": "uint256",
          "name": "tokenId",
          "type": "uint256"
        }
      ],
      "name": "Approval",
      "type": "event"
    },
    {
      "anonymous": false,
      "inputs": [
        {
          "indexed": true,
          "internalType": "address",
          "name": "owner",
          "type": "address"
        },
        {
          "indexed": true,
          "internalType": "address",
          "name": "operator",
          "type": "address"
        },
        {
          "indexed": false,
          "internalType": "bool",
          "name": "approved",
          "type": "bool"
        }
      ],
      "name": "ApprovalForAll",
      "type": "event"
    },
    {
      "anonymous": false,
      "inputs": [
        {
          "indexed": true,
          "internalType": "address",
          "name": "previousOwner",
          "type": "address"
        },
        {
          "indexed": true,
          "internalType": "address",
          "name": "newOwner",
          "type": "address"
        }
      ],
      "name": "OwnershipTransferred",
      "type": "event"
    },
    {
      "anonymous": false,
      "inputs": [
        {
          "indexed": true,
          "internalType": "address",
          "name": "from",
          "type": "address"
        },
        {
          "indexed": true,
          "internalType": "address",
          "name": "to",
          "type": "address"
        },
        {
          "indexed": true,
          "internalType": "uint256",
          "name": "tokenId",
          "type": "uint256"
        }
      ],
      "name": "Transfer",
      "type": "event"
    },
    {
      "inputs": [
        {
          "internalType": "address",
          "name": "to",
          "type": "address"
        },
        {
          "internalType": "uint256",
          "name": "tokenId",
          "type": "uint256"
        }
      ],
      "name": "approve",
      "outputs": [],
      "stateMutability": "nonpayable",
      "type": "function"
    },
    {
      "inputs": [
        {
          "internalType": "address",
          "name": "owner",
          "type": "address"
        }
      ],
      "name": "balanceOf",
      "outputs": [
        {
          "internalType": "uint256",
          "name": "",
          "type": "uint256"
        }
      ],
      "stateMutability": "view",
      "type": "function"
    },
    {
      "inputs": [
        {
          "internalType": "uint256",
          "name": "tokenId",
          "type": "uint256"
        }
      ],
      "name": "burn",
      "outputs": [],
      "stateMutability": "nonpayable",
      "type": "function"
    },
    {
      "inputs": [],
      "name": "contractBalance",
      "outputs": [
        {
          "internalType": "uint256",
          "name": "",
          "type": "uint256"
        }
      ],
      "stateMutability": "view",
      "type": "function"
    },
    {
      "inputs": [
        {
          "internalType": "uint256",
          "name": "tokenId",
          "type": "uint256"
        }
      ],
      "name": "exists",
      "outputs": [
        {
          "internalType": "bool",
          "name": "",
          "type": "bool"
        }
      ],
      "stateMutability": "view",
      "type": "function"
    },
    {
      "inputs": [
        {
          "internalType": "uint256",
          "name": "keyType",
          "type": "uint256"
        },
        {
          "internalType": "uint256",
          "name": "freeMintId",
          "type": "uint256"
        },
        {
          "internalType": "bytes",
          "name": "ipfsCID",
          "type": "bytes"
        },
        {
          "internalType": "bytes32",
          "name": "msgHash",
          "type": "bytes32"
        },
        {
          "internalType": "uint8",
          "name": "v",
          "type": "uint8"
        },
        {
          "internalType": "bytes32",
          "name": "r",
          "type": "bytes32"
        },
        {
          "internalType": "bytes32",
          "name": "s",
          "type": "bytes32"
        }
      ],
      "name": "freeMintGrantAndBurnNext",
      "outputs": [
        {
          "internalType": "uint256",
          "name": "",
          "type": "uint256"
        }
      ],
      "stateMutability": "nonpayable",
      "type": "function"
    },
    {
      "inputs": [
        {
          "internalType": "uint256",
          "name": "keyType",
          "type": "uint256"
        },
        {
          "internalType": "uint256",
          "name": "freeMintId",
          "type": "uint256"
        },
        {
          "internalType": "bytes32",
          "name": "msgHash",
          "type": "bytes32"
        },
        {
          "internalType": "uint8",
          "name": "v",
          "type": "uint8"
        },
        {
          "internalType": "bytes32",
          "name": "r",
          "type": "bytes32"
        },
        {
          "internalType": "bytes32",
          "name": "s",
          "type": "bytes32"
        }
      ],
      "name": "freeMintNext",
      "outputs": [
        {
          "internalType": "uint256",
          "name": "",
          "type": "uint256"
        }
      ],
      "stateMutability": "nonpayable",
      "type": "function"
    },
    {
      "inputs": [
        {
          "internalType": "uint256",
          "name": "freeMintId",
          "type": "uint256"
        },
        {
          "internalType": "bytes32",
          "name": "msgHash",
          "type": "bytes32"
        },
        {
          "internalType": "uint8",
          "name": "v",
          "type": "uint8"
        },
        {
          "internalType": "bytes32",
          "name": "r",
          "type": "bytes32"
        },
        {
          "internalType": "bytes32",
          "name": "s",
          "type": "bytes32"
        }
      ],
      "name": "freeMintSigTest",
      "outputs": [],
      "stateMutability": "view",
      "type": "function"
    },
    {
      "inputs": [],
      "name": "freeMintSigner",
      "outputs": [
        {
          "internalType": "address",
          "name": "",
          "type": "address"
        }
      ],
      "stateMutability": "view",
      "type": "function"
    },
    {
      "inputs": [
        {
          "internalType": "uint256",
          "name": "tokenId",
          "type": "uint256"
        }
      ],
      "name": "getApproved",
      "outputs": [
        {
          "internalType": "address",
          "name": "",
          "type": "address"
        }
      ],
      "stateMutability": "view",
      "type": "function"
    },
    {
      "inputs": [
        {
          "internalType": "uint256",
          "name": "tokenId",
          "type": "uint256"
        }
      ],
      "name": "getEthAddress",
      "outputs": [
        {
          "internalType": "address",
          "name": "",
          "type": "address"
        }
      ],
      "stateMutability": "view",
      "type": "function"
    },
    {
      "inputs": [
        {
          "internalType": "uint256",
          "name": "tokenId",
          "type": "uint256"
        }
      ],
      "name": "getPubkey",
      "outputs": [
        {
          "internalType": "bytes",
          "name": "",
          "type": "bytes"
        }
      ],
      "stateMutability": "view",
      "type": "function"
    },
    {
      "inputs": [
        {
          "internalType": "uint256",
          "name": "keyType",
          "type": "uint256"
        }
      ],
      "name": "getUnmintedRoutedTokenIdCount",
      "outputs": [
        {
          "internalType": "uint256",
          "name": "",
          "type": "uint256"
        }
      ],
      "stateMutability": "view",
      "type": "function"
    },
    {
      "inputs": [
        {
          "internalType": "address",
          "name": "owner",
          "type": "address"
        },
        {
          "internalType": "address",
          "name": "operator",
          "type": "address"
        }
      ],
      "name": "isApprovedForAll",
      "outputs": [
        {
          "internalType": "bool",
          "name": "",
          "type": "bool"
        }
      ],
      "stateMutability": "view",
      "type": "function"
    },
    {
      "inputs": [],
      "name": "mintCost",
      "outputs": [
        {
          "internalType": "uint256",
          "name": "",
          "type": "uint256"
        }
      ],
      "stateMutability": "view",
      "type": "function"
    },
    {
      "inputs": [
        {
          "internalType": "uint256",
          "name": "keyType",
          "type": "uint256"
        },
        {
          "internalType": "bytes",
          "name": "ipfsCID",
          "type": "bytes"
        }
      ],
      "name": "mintGrantAndBurnNext",
      "outputs": [
        {
          "internalType": "uint256",
          "name": "",
          "type": "uint256"
        }
      ],
      "stateMutability": "payable",
      "type": "function"
    },
    {
      "inputs": [
        {
          "internalType": "uint256",
          "name": "tokenId",
          "type": "uint256"
        },
        {
          "internalType": "bytes",
          "name": "ipfsCID",
          "type": "bytes"
        }
      ],
      "name": "mintGrantAndBurnSpecific",
      "outputs": [],
      "stateMutability": "nonpayable",
      "type": "function"
    },
    {
      "inputs": [
        {
          "internalType": "uint256",
          "name": "keyType",
          "type": "uint256"
        }
      ],
      "name": "mintNext",
      "outputs": [
        {
          "internalType": "uint256",
          "name": "",
          "type": "uint256"
        }
      ],
      "stateMutability": "payable",
      "type": "function"
    },
    {
      "inputs": [
        {
          "internalType": "uint256",
          "name": "tokenId",
          "type": "uint256"
        }
      ],
      "name": "mintSpecific",
      "outputs": [],
      "stateMutability": "nonpayable",
      "type": "function"
    },
    {
      "inputs": [],
      "name": "name",
      "outputs": [
        {
          "internalType": "string",
          "name": "",
          "type": "string"
        }
      ],
      "stateMutability": "view",
      "type": "function"
    },
    {
      "inputs": [],
      "name": "owner",
      "outputs": [
        {
          "internalType": "address",
          "name": "",
          "type": "address"
        }
      ],
      "stateMutability": "view",
      "type": "function"
    },
    {
      "inputs": [
        {
          "internalType": "uint256",
          "name": "tokenId",
          "type": "uint256"
        }
      ],
      "name": "ownerOf",
      "outputs": [
        {
          "internalType": "address",
          "name": "",
          "type": "address"
        }
      ],
      "stateMutability": "view",
      "type": "function"
    },
    {
      "inputs": [],
      "name": "pkpPermissions",
      "outputs": [
        {
          "internalType": "contract PKPPermissions",
          "name": "",
          "type": "address"
        }
      ],
      "stateMutability": "view",
      "type": "function"
    },
    {
      "inputs": [
        {
          "internalType": "uint256",
          "name": "tokenId",
          "type": "uint256"
        },
        {
          "internalType": "uint256",
          "name": "keyType",
          "type": "uint256"
        }
      ],
      "name": "pkpRouted",
      "outputs": [],
      "stateMutability": "nonpayable",
      "type": "function"
    },
    {
      "inputs": [
        {
          "internalType": "bytes32",
          "name": "hash",
          "type": "bytes32"
        }
      ],
      "name": "prefixed",
      "outputs": [
        {
          "internalType": "bytes32",
          "name": "",
          "type": "bytes32"
        }
      ],
      "stateMutability": "pure",
      "type": "function"
    },
    {
      "inputs": [
        {
          "internalType": "uint256",
          "name": "",
          "type": "uint256"
        }
      ],
      "name": "redeemedFreeMintIds",
      "outputs": [
        {
          "internalType": "bool",
          "name": "",
          "type": "bool"
        }
      ],
      "stateMutability": "view",
      "type": "function"
    },
    {
      "inputs": [],
      "name": "renounceOwnership",
      "outputs": [],
      "stateMutability": "nonpayable",
      "type": "function"
    },
    {
      "inputs": [],
      "name": "router",
      "outputs": [
        {
          "internalType": "contract PubkeyRouter",
          "name": "",
          "type": "address"
        }
      ],
      "stateMutability": "view",
      "type": "function"
    },
    {
      "inputs": [
        {
          "internalType": "address",
          "name": "from",
          "type": "address"
        },
        {
          "internalType": "address",
          "name": "to",
          "type": "address"
        },
        {
          "internalType": "uint256",
          "name": "tokenId",
          "type": "uint256"
        }
      ],
      "name": "safeTransferFrom",
      "outputs": [],
      "stateMutability": "nonpayable",
      "type": "function"
    },
    {
      "inputs": [
        {
          "internalType": "address",
          "name": "from",
          "type": "address"
        },
        {
          "internalType": "address",
          "name": "to",
          "type": "address"
        },
        {
          "internalType": "uint256",
          "name": "tokenId",
          "type": "uint256"
        },
        {
          "internalType": "bytes",
          "name": "data",
          "type": "bytes"
        }
      ],
      "name": "safeTransferFrom",
      "outputs": [],
      "stateMutability": "nonpayable",
      "type": "function"
    },
    {
      "inputs": [
        {
          "internalType": "address",
          "name": "operator",
          "type": "address"
        },
        {
          "internalType": "bool",
          "name": "approved",
          "type": "bool"
        }
      ],
      "name": "setApprovalForAll",
      "outputs": [],
      "stateMutability": "nonpayable",
      "type": "function"
    },
    {
      "inputs": [
        {
          "internalType": "address",
          "name": "newFreeMintSigner",
          "type": "address"
        }
      ],
      "name": "setFreeMintSigner",
      "outputs": [],
      "stateMutability": "nonpayable",
      "type": "function"
    },
    {
      "inputs": [
        {
          "internalType": "uint256",
          "name": "newMintCost",
          "type": "uint256"
        }
      ],
      "name": "setMintCost",
      "outputs": [],
      "stateMutability": "nonpayable",
      "type": "function"
    },
    {
      "inputs": [
        {
          "internalType": "address",
          "name": "pkpPermissionsAddress",
          "type": "address"
        }
      ],
      "name": "setPkpPermissionsAddress",
      "outputs": [],
      "stateMutability": "nonpayable",
      "type": "function"
    },
    {
      "inputs": [
        {
          "internalType": "address",
          "name": "routerAddress",
          "type": "address"
        }
      ],
      "name": "setRouterAddress",
      "outputs": [],
      "stateMutability": "nonpayable",
      "type": "function"
    },
    {
      "inputs": [
        {
          "internalType": "bytes4",
          "name": "interfaceId",
          "type": "bytes4"
        }
      ],
      "name": "supportsInterface",
      "outputs": [
        {
          "internalType": "bool",
          "name": "",
          "type": "bool"
        }
      ],
      "stateMutability": "view",
      "type": "function"
    },
    {
      "inputs": [],
      "name": "symbol",
      "outputs": [
        {
          "internalType": "string",
          "name": "",
          "type": "string"
        }
      ],
      "stateMutability": "view",
      "type": "function"
    },
    {
      "inputs": [
        {
          "internalType": "uint256",
          "name": "index",
          "type": "uint256"
        }
      ],
      "name": "tokenByIndex",
      "outputs": [
        {
          "internalType": "uint256",
          "name": "",
          "type": "uint256"
        }
      ],
      "stateMutability": "view",
      "type": "function"
    },
    {
      "inputs": [
        {
          "internalType": "address",
          "name": "owner",
          "type": "address"
        },
        {
          "internalType": "uint256",
          "name": "index",
          "type": "uint256"
        }
      ],
      "name": "tokenOfOwnerByIndex",
      "outputs": [
        {
          "internalType": "uint256",
          "name": "",
          "type": "uint256"
        }
      ],
      "stateMutability": "view",
      "type": "function"
    },
    {
      "inputs": [
        {
          "internalType": "uint256",
          "name": "tokenId",
          "type": "uint256"
        }
      ],
      "name": "tokenURI",
      "outputs": [
        {
          "internalType": "string",
          "name": "",
          "type": "string"
        }
      ],
      "stateMutability": "view",
      "type": "function"
    },
    {
      "inputs": [],
      "name": "totalSupply",
      "outputs": [
        {
          "internalType": "uint256",
          "name": "",
          "type": "uint256"
        }
      ],
      "stateMutability": "view",
      "type": "function"
    },
    {
      "inputs": [
        {
          "internalType": "address",
          "name": "from",
          "type": "address"
        },
        {
          "internalType": "address",
          "name": "to",
          "type": "address"
        },
        {
          "internalType": "uint256",
          "name": "tokenId",
          "type": "uint256"
        }
      ],
      "name": "transferFrom",
      "outputs": [],
      "stateMutability": "nonpayable",
      "type": "function"
    },
    {
      "inputs": [
        {
          "internalType": "address",
          "name": "newOwner",
          "type": "address"
        }
      ],
      "name": "transferOwnership",
      "outputs": [],
      "stateMutability": "nonpayable",
      "type": "function"
    },
    {
      "inputs": [
        {
          "internalType": "uint256",
          "name": "",
          "type": "uint256"
        },
        {
          "internalType": "uint256",
          "name": "",
          "type": "uint256"
        }
      ],
      "name": "unmintedRoutedTokenIds",
      "outputs": [
        {
          "internalType": "uint256",
          "name": "",
          "type": "uint256"
        }
      ],
      "stateMutability": "view",
      "type": "function"
    },
    {
      "inputs": [],
      "name": "withdraw",
      "outputs": [],
      "stateMutability": "nonpayable",
      "type": "function"
    }
  ],
  "bytecode": "0x60806040523480156200001157600080fd5b506040518060400160405280601481526020017f50726f6772616d6d61626c65204b6579706169720000000000000000000000008152506040518060400160405280600381526020017f504b500000000000000000000000000000000000000000000000000000000000815250816000908051906020019062000096929190620001f4565b508060019080519060200190620000af929190620001f4565b505050620000d2620000c66200012660201b60201c565b6200012e60201b60201c565b655af3107a4000600d8190555033600f60006101000a81548173ffffffffffffffffffffffffffffffffffffffff021916908373ffffffffffffffffffffffffffffffffffffffff16021790555062000309565b600033905090565b6000600660009054906101000a900473ffffffffffffffffffffffffffffffffffffffff16905081600660006101000a81548173ffffffffffffffffffffffffffffffffffffffff021916908373ffffffffffffffffffffffffffffffffffffffff1602179055508173ffffffffffffffffffffffffffffffffffffffff168173ffffffffffffffffffffffffffffffffffffffff167f8be0079c531659141344cd1fd0a4f28419497f9722a3daafe3b4186f6b6457e060405160405180910390a35050565b8280546200020290620002a4565b90600052602060002090601f01602090048101928262000226576000855562000272565b82601f106200024157805160ff191683800117855562000272565b8280016001018555821562000272579182015b828111156200027157825182559160200191906001019062000254565b5b50905062000281919062000285565b5090565b5b80821115620002a057600081600090555060010162000286565b5090565b60006002820490506001821680620002bd57607f821691505b60208210811415620002d457620002d3620002da565b5b50919050565b7f4e487b7100000000000000000000000000000000000000000000000000000000600052602260045260246000fd5b615db080620003196000396000f3fe6080604052600436106102725760003560e01c80636352211e1161014f578063b94a2102116100c1578063e985e9c51161007a578063e985e9c5146109c8578063ef6fd87814610a05578063f2fde38b14610a42578063f556aeb114610a6b578063f70e72ef14610a94578063f887ea4014610ad157610272565b8063b94a210214610892578063bd4986a0146108bd578063bdb4b848146108fa578063c87b56dd14610925578063d343682614610962578063d7b0398b1461098b57610272565b80638b7afe2e116101135780638b7afe2e146107945780638da5cb5b146107bf57806395d89b41146107ea57806397016f3f14610815578063a22cb46514610840578063b88d4fde1461086957610272565b80636352211e146106aa57806366a306d7146106e757806370a0823114610717578063715018a6146107545780638545f4ea1461076b57610272565b80633ccfd60b116101e85780634c19eae6116101ac5780634c19eae6146105715780634f558e791461059a5780634f6ccce7146105d757806356e3a1ae146106145780635c110a9c146106515780635d228b161461067a57610272565b80633ccfd60b146104a257806341cb87fc146104b957806342842e0e146104e257806342966c681461050b57806342dd8fcb1461053457610272565b806318160ddd1161023a57806318160ddd146103825780631ea89a22146103ad5780631f275713146103d657806323b872dd146104135780632f745c591461043c5780633b1898521461047957610272565b806301ffc9a71461027757806306fdde03146102b4578063081812fc146102df578063095ea7b31461031c5780631582391c14610345575b600080fd5b34801561028357600080fd5b5061029e60048036038101906102999190613955565b610afc565b6040516102ab919061439e565b60405180910390f35b3480156102c057600080fd5b506102c9610c36565b6040516102d69190614471565b60405180910390f35b3480156102eb57600080fd5b50610306600480360381019061030191906139f8565b610cc8565b6040516103139190614337565b60405180910390f35b34801561032857600080fd5b50610343600480360381019061033e91906138bb565b610d0e565b005b34801561035157600080fd5b5061036c60048036038101906103679190613b3c565b610e26565b6040516103799190614753565b60405180910390f35b34801561038e57600080fd5b50610397610e50565b6040516103a49190614753565b60405180910390f35b3480156103b957600080fd5b506103d460048036038101906103cf919061370b565b610e5d565b005b3480156103e257600080fd5b506103fd60048036038101906103f89190613928565b610ea9565b60405161040a91906143b9565b60405180910390f35b34801561041f57600080fd5b5061043a600480360381019061043591906137a5565b610ed9565b005b34801561044857600080fd5b50610463600480360381019061045e91906138bb565b610f39565b6040516104709190614753565b60405180910390f35b34801561048557600080fd5b506104a0600480360381019061049b919061370b565b610fde565b005b3480156104ae57600080fd5b506104b761102a565b005b3480156104c557600080fd5b506104e060048036038101906104db919061370b565b611085565b005b3480156104ee57600080fd5b50610509600480360381019061050491906137a5565b6110d1565b005b34801561051757600080fd5b50610532600480360381019061052d91906139f8565b6110f1565b005b34801561054057600080fd5b5061055b600480360381019061055691906139f8565b61114d565b6040516105689190614753565b60405180910390f35b34801561057d57600080fd5b5061059860048036038101906105939190613a25565b61116d565b005b3480156105a657600080fd5b506105c160048036038101906105bc91906139f8565b611337565b6040516105ce919061439e565b60405180910390f35b3480156105e357600080fd5b506105fe60048036038101906105f991906139f8565b611349565b60405161060b9190614753565b60405180910390f35b34801561062057600080fd5b5061063b600480360381019061063691906139f8565b6113ba565b604051610648919061439e565b60405180910390f35b34801561065d57600080fd5b5061067860048036038101906106739190613afc565b6113da565b005b610694600480360381019061068f91906139f8565b6114a8565b6040516106a19190614753565b60405180910390f35b3480156106b657600080fd5b506106d160048036038101906106cc91906139f8565b61150e565b6040516106de9190614337565b60405180910390f35b61070160048036038101906106fc9190613aa0565b6115c0565b60405161070e9190614753565b60405180910390f35b34801561072357600080fd5b5061073e6004803603810190610739919061370b565b61170a565b60405161074b9190614753565b60405180910390f35b34801561076057600080fd5b506107696117c2565b005b34801561077757600080fd5b50610792600480360381019061078d91906139f8565b6117d6565b005b3480156107a057600080fd5b506107a96117e8565b6040516107b69190614753565b60405180910390f35b3480156107cb57600080fd5b506107d46117ee565b6040516107e19190614337565b60405180910390f35b3480156107f657600080fd5b506107ff611818565b60405161080c9190614471565b60405180910390f35b34801561082157600080fd5b5061082a6118aa565b604051610837919061443b565b60405180910390f35b34801561084c57600080fd5b506108676004803603810190610862919061387b565b6118d0565b005b34801561087557600080fd5b50610890600480360381019061088b91906137f8565b6118e6565b005b34801561089e57600080fd5b506108a7611948565b6040516108b49190614337565b60405180910390f35b3480156108c957600080fd5b506108e460048036038101906108df91906139f8565b61196e565b6040516108f19190614337565b60405180910390f35b34801561090657600080fd5b5061090f611a22565b60405161091c9190614753565b60405180910390f35b34801561093157600080fd5b5061094c600480360381019061094791906139f8565b611a28565b6040516109599190614471565b60405180910390f35b34801561096e57600080fd5b50610989600480360381019061098491906139f8565b611c08565b005b34801561099757600080fd5b506109b260048036038101906109ad9190613bc9565b611c1d565b6040516109bf9190614753565b60405180910390f35b3480156109d457600080fd5b506109ef60048036038101906109ea9190613765565b611c49565b6040516109fc919061439e565b60405180910390f35b348015610a1157600080fd5b50610a2c6004803603810190610a2791906139f8565b611cdd565b604051610a399190614419565b60405180910390f35b348015610a4e57600080fd5b50610a696004803603810190610a64919061370b565b611d96565b005b348015610a7757600080fd5b50610a926004803603810190610a8d9190613aa0565b611e1a565b005b348015610aa057600080fd5b50610abb6004803603810190610ab69190613afc565b611f13565b604051610ac89190614753565b60405180910390f35b348015610add57600080fd5b50610ae6611f44565b604051610af39190614456565b60405180910390f35b60007f780e9d63000000000000000000000000000000000000000000000000000000007bffffffffffffffffffffffffffffffffffffffffffffffffffffffff1916827bffffffffffffffffffffffffffffffffffffffffffffffffffffffff19161480610bc757507f5b5e139f000000000000000000000000000000000000000000000000000000007bffffffffffffffffffffffffffffffffffffffffffffffffffffffff1916827bffffffffffffffffffffffffffffffffffffffffffffffffffffffff1916145b80610c2f57507f80ac58cd000000000000000000000000000000000000000000000000000000007bffffffffffffffffffffffffffffffffffffffffffffffffffffffff1916827bffffffffffffffffffffffffffffffffffffffffffffffffffffffff1916145b9050919050565b606060008054610c4590614aba565b80601f0160208091040260200160405190810160405280929190818152602001828054610c7190614aba565b8015610cbe5780601f10610c9357610100808354040283529160200191610cbe565b820191906000526020600020905b815481529060010190602001808311610ca157829003601f168201915b5050505050905090565b6000610cd382611f6a565b6004600083815260200190815260200160002060009054906101000a900473ffffffffffffffffffffffffffffffffffffffff169050919050565b6000610d198261150e565b90508073ffffffffffffffffffffffffffffffffffffffff168373ffffffffffffffffffffffffffffffffffffffff161415610d8a576040517f08c379a0000000000000000000000000000000000000000000000000000000008152600401610d8190614693565b60405180910390fd5b8073ffffffffffffffffffffffffffffffffffffffff16610da9611fb5565b73ffffffffffffffffffffffffffffffffffffffff161480610dd85750610dd781610dd2611fb5565b611c49565b5b610e17576040517f08c379a0000000000000000000000000000000000000000000000000000000008152600401610e0e90614613565b60405180910390fd5b610e218383611fbd565b505050565b600080610e3288612076565b9050610e42878288888888612168565b809150509695505050505050565b6000600980549050905090565b610e656121b3565b80600c60006101000a81548173ffffffffffffffffffffffffffffffffffffffff021916908373ffffffffffffffffffffffffffffffffffffffff16021790555050565b600081604051602001610ebc919061428e565b604051602081830303815290604052805190602001209050919050565b610eea610ee4611fb5565b82612231565b610f29576040517f08c379a0000000000000000000000000000000000000000000000000000000008152600401610f2090614733565b60405180910390fd5b610f348383836122c6565b505050565b6000610f448361170a565b8210610f85576040517f08c379a0000000000000000000000000000000000000000000000000000000008152600401610f7c906144d3565b60405180910390fd5b600760008473ffffffffffffffffffffffffffffffffffffffff1673ffffffffffffffffffffffffffffffffffffffff168152602001908152602001600020600083815260200190815260200160002054905092915050565b610fe66121b3565b80600f60006101000a81548173ffffffffffffffffffffffffffffffffffffffff021916908373ffffffffffffffffffffffffffffffffffffffff16021790555050565b6110326121b3565b3373ffffffffffffffffffffffffffffffffffffffff166108fc600e549081150290604051600060405180830381858888f1935050505015801561107a573d6000803e3d6000fd5b506000600e81905550565b61108d6121b3565b80600b60006101000a81548173ffffffffffffffffffffffffffffffffffffffff021916908373ffffffffffffffffffffffffffffffffffffffff16021790555050565b6110ec838383604051806020016040528060008152506118e6565b505050565b6111026110fc611fb5565b82612231565b611141576040517f08c379a000000000000000000000000000000000000000000000000000000000815260040161113890614733565b60405180910390fd5b61114a8161252d565b50565b600060106000838152602001908152602001600020805490509050919050565b60006111a03087604051602001611185929190614262565b60405160208183030381529060405280519060200120610ea9565b90508481146111e4576040517f08c379a00000000000000000000000000000000000000000000000000000000081526004016111db906146f3565b60405180910390fd5b60006001868686866040516000815260200160405260405161120994939291906143d4565b6020604051602081039080840390855afa15801561122b573d6000803e3d6000fd5b505050602060405103519050600f60009054906101000a900473ffffffffffffffffffffffffffffffffffffffff1673ffffffffffffffffffffffffffffffffffffffff168173ffffffffffffffffffffffffffffffffffffffff16146112c7576040517f08c379a00000000000000000000000000000000000000000000000000000000081526004016112be906146b3565b60405180910390fd5b600015156011600089815260200190815260200160002060009054906101000a900460ff1615151461132e576040517f08c379a000000000000000000000000000000000000000000000000000000000815260040161132590614713565b60405180910390fd5b50505050505050565b60006113428261264a565b9050919050565b6000611353610e50565b8210611394576040517f08c379a000000000000000000000000000000000000000000000000000000000815260040161138b906146d3565b60405180910390fd5b600982815481106113a8576113a7614c11565b5b90600052602060002001549050919050565b60116020528060005260406000206000915054906101000a900460ff1681565b600b60009054906101000a900473ffffffffffffffffffffffffffffffffffffffff1673ffffffffffffffffffffffffffffffffffffffff163373ffffffffffffffffffffffffffffffffffffffff161461146a576040517f08c379a000000000000000000000000000000000000000000000000000000000815260040161146190614493565b60405180910390fd5b601060008281526020019081526020016000208290806001815401808255809150506001900390600052602060002001600090919091909150555050565b6000600d5434146114ee576040517f08c379a00000000000000000000000000000000000000000000000000000000081526004016114e590614513565b60405180910390fd5b60006114f983612076565b905061150581336126b6565b80915050919050565b6000806002600084815260200190815260200160002060009054906101000a900473ffffffffffffffffffffffffffffffffffffffff169050600073ffffffffffffffffffffffffffffffffffffffff168173ffffffffffffffffffffffffffffffffffffffff1614156115b7576040517f08c379a00000000000000000000000000000000000000000000000000000000081526004016115ae90614673565b60405180910390fd5b80915050919050565b6000600d543414611606576040517f08c379a00000000000000000000000000000000000000000000000000000000081526004016115fd90614513565b60405180910390fd5b600061161184612076565b905061161d81306126b6565b600c60009054906101000a900473ffffffffffffffffffffffffffffffffffffffff1673ffffffffffffffffffffffffffffffffffffffff16638a4315788285600067ffffffffffffffff81111561167857611677614c40565b5b6040519080825280602002602001820160405280156116a65781602001602082028036833780820191505090505b506040518463ffffffff1660e01b81526004016116c59392919061476e565b600060405180830381600087803b1580156116df57600080fd5b505af11580156116f3573d6000803e3d6000fd5b505050506117008161252d565b8091505092915050565b60008073ffffffffffffffffffffffffffffffffffffffff168273ffffffffffffffffffffffffffffffffffffffff16141561177b576040517f08c379a0000000000000000000000000000000000000000000000000000000008152600401611772906145f3565b60405180910390fd5b600360008373ffffffffffffffffffffffffffffffffffffffff1673ffffffffffffffffffffffffffffffffffffffff168152602001908152602001600020549050919050565b6117ca6121b3565b6117d4600061280b565b565b6117de6121b3565b80600d8190555050565b600e5481565b6000600660009054906101000a900473ffffffffffffffffffffffffffffffffffffffff16905090565b60606001805461182790614aba565b80601f016020809104026020016040519081016040528092919081815260200182805461185390614aba565b80156118a05780601f10611875576101008083540402835291602001916118a0565b820191906000526020600020905b81548152906001019060200180831161188357829003601f168201915b5050505050905090565b600c60009054906101000a900473ffffffffffffffffffffffffffffffffffffffff1681565b6118e26118db611fb5565b83836128d1565b5050565b6118f76118f1611fb5565b83612231565b611936576040517f08c379a000000000000000000000000000000000000000000000000000000000815260040161192d90614733565b60405180910390fd5b61194284848484612a3e565b50505050565b600f60009054906101000a900473ffffffffffffffffffffffffffffffffffffffff1681565b6000600b60009054906101000a900473ffffffffffffffffffffffffffffffffffffffff1673ffffffffffffffffffffffffffffffffffffffff1663bd4986a0836040518263ffffffff1660e01b81526004016119cb9190614753565b60206040518083038186803b1580156119e357600080fd5b505afa1580156119f7573d6000803e3d6000fd5b505050506040513d601f19601f82011682018060405250810190611a1b9190613738565b9050919050565b600d5481565b606060006040518061084001604052806108038152602001615538610803913990506000600b60009054906101000a900473ffffffffffffffffffffffffffffffffffffffff1673ffffffffffffffffffffffffffffffffffffffff1663ef6fd878856040518263ffffffff1660e01b8152600401611aa79190614753565b60006040518083038186803b158015611abf57600080fd5b505afa158015611ad3573d6000803e3d6000fd5b505050506040513d6000823e3d601f19601f82011682018060405250810190611afc91906139af565b90506000600b60009054906101000a900473ffffffffffffffffffffffffffffffffffffffff1673ffffffffffffffffffffffffffffffffffffffff1663bd4986a0866040518263ffffffff1660e01b8152600401611b5b9190614753565b60206040518083038186803b158015611b7357600080fd5b505afa158015611b87573d6000803e3d6000fd5b505050506040513d601f19601f82011682018060405250810190611bab9190613738565b90506000611bdb848484604051602001611bc7939291906142b4565b604051602081830303815290604052612a9a565b905080604051602001611bee9190614315565b604051602081830303815290604052945050505050919050565b611c106121b3565b611c1a81336126b6565b50565b600080611c2989612076565b9050611c3a88828989898989612bfe565b80915050979650505050505050565b6000600560008473ffffffffffffffffffffffffffffffffffffffff1673ffffffffffffffffffffffffffffffffffffffff16815260200190815260200160002060008373ffffffffffffffffffffffffffffffffffffffff1673ffffffffffffffffffffffffffffffffffffffff16815260200190815260200160002060009054906101000a900460ff16905092915050565b6060600b60009054906101000a900473ffffffffffffffffffffffffffffffffffffffff1673ffffffffffffffffffffffffffffffffffffffff1663ef6fd878836040518263ffffffff1660e01b8152600401611d3a9190614753565b60006040518083038186803b158015611d5257600080fd5b505afa158015611d66573d6000803e3d6000fd5b505050506040513d6000823e3d601f19601f82011682018060405250810190611d8f91906139af565b9050919050565b611d9e6121b3565b600073ffffffffffffffffffffffffffffffffffffffff168173ffffffffffffffffffffffffffffffffffffffff161415611e0e576040517f08c379a0000000000000000000000000000000000000000000000000000000008152600401611e0590614533565b60405180910390fd5b611e178161280b565b50565b611e226121b3565b611e2c82306126b6565b600c60009054906101000a900473ffffffffffffffffffffffffffffffffffffffff1673ffffffffffffffffffffffffffffffffffffffff16638a4315788383600067ffffffffffffffff811115611e8757611e86614c40565b5b604051908082528060200260200182016040528015611eb55781602001602082028036833780820191505090505b506040518463ffffffff1660e01b8152600401611ed49392919061476e565b600060405180830381600087803b158015611eee57600080fd5b505af1158015611f02573d6000803e3d6000fd5b50505050611f0f8261252d565b5050565b60106020528160005260406000208181548110611f2f57600080fd5b90600052602060002001600091509150505481565b600b60009054906101000a900473ffffffffffffffffffffffffffffffffffffffff1681565b611f738161264a565b611fb2576040517f08c379a0000000000000000000000000000000000000000000000000000000008152600401611fa990614673565b60405180910390fd5b50565b600033905090565b816004600083815260200190815260200160002060006101000a81548173ffffffffffffffffffffffffffffffffffffffff021916908373ffffffffffffffffffffffffffffffffffffffff160217905550808273ffffffffffffffffffffffffffffffffffffffff166120308361150e565b73ffffffffffffffffffffffffffffffffffffffff167f8c5be1e5ebec7d5bd14f71427d1e84f3dd0314c0f7b2291e5b200ac8c7c3b92560405160405180910390a45050565b6000806010600084815260200190815260200160002080549050116120d0576040517f08c379a00000000000000000000000000000000000000000000000000000000081526004016120c7906144b3565b60405180910390fd5b600060106000848152602001908152602001600020600160106000868152602001908152602001600020805490506121089190614971565b8154811061211957612118614c11565b5b906000526020600020015490506010600084815260200190815260200160002080548061214957612148614be2565b5b6001900381819060005260206000200160009055905580915050919050565b612175868585858561116d565b61217f85336126b6565b60016011600088815260200190815260200160002060006101000a81548160ff021916908315150217905550505050505050565b6121bb611fb5565b73ffffffffffffffffffffffffffffffffffffffff166121d96117ee565b73ffffffffffffffffffffffffffffffffffffffff161461222f576040517f08c379a000000000000000000000000000000000000000000000000000000000815260040161222690614653565b60405180910390fd5b565b60008061223d8361150e565b90508073ffffffffffffffffffffffffffffffffffffffff168473ffffffffffffffffffffffffffffffffffffffff16148061227f575061227e8185611c49565b5b806122bd57508373ffffffffffffffffffffffffffffffffffffffff166122a584610cc8565b73ffffffffffffffffffffffffffffffffffffffff16145b91505092915050565b8273ffffffffffffffffffffffffffffffffffffffff166122e68261150e565b73ffffffffffffffffffffffffffffffffffffffff161461233c576040517f08c379a000000000000000000000000000000000000000000000000000000000815260040161233390614553565b60405180910390fd5b600073ffffffffffffffffffffffffffffffffffffffff168273ffffffffffffffffffffffffffffffffffffffff1614156123ac576040517f08c379a00000000000000000000000000000000000000000000000000000000081526004016123a3906145b3565b60405180910390fd5b6123b7838383612d2d565b6123c2600082611fbd565b6001600360008573ffffffffffffffffffffffffffffffffffffffff1673ffffffffffffffffffffffffffffffffffffffff16815260200190815260200160002060008282546124129190614971565b925050819055506001600360008473ffffffffffffffffffffffffffffffffffffffff1673ffffffffffffffffffffffffffffffffffffffff16815260200190815260200160002060008282546124699190614890565b92505081905550816002600083815260200190815260200160002060006101000a81548173ffffffffffffffffffffffffffffffffffffffff021916908373ffffffffffffffffffffffffffffffffffffffff160217905550808273ffffffffffffffffffffffffffffffffffffffff168473ffffffffffffffffffffffffffffffffffffffff167fddf252ad1be2c89b69c2b068fc378daa952ba7f163c4a11628f55a4df523b3ef60405160405180910390a4612528838383612d3d565b505050565b60006125388261150e565b905061254681600084612d2d565b612551600083611fbd565b6001600360008373ffffffffffffffffffffffffffffffffffffffff1673ffffffffffffffffffffffffffffffffffffffff16815260200190815260200160002060008282546125a19190614971565b925050819055506002600083815260200190815260200160002060006101000a81549073ffffffffffffffffffffffffffffffffffffffff021916905581600073ffffffffffffffffffffffffffffffffffffffff168273ffffffffffffffffffffffffffffffffffffffff167fddf252ad1be2c89b69c2b068fc378daa952ba7f163c4a11628f55a4df523b3ef60405160405180910390a461264681600084612d3d565b5050565b60008073ffffffffffffffffffffffffffffffffffffffff166002600084815260200190815260200160002060009054906101000a900473ffffffffffffffffffffffffffffffffffffffff1673ffffffffffffffffffffffffffffffffffffffff1614159050919050565b600b60009054906101000a900473ffffffffffffffffffffffffffffffffffffffff1673ffffffffffffffffffffffffffffffffffffffff166301c6d035836040518263ffffffff1660e01b81526004016127119190614753565b60206040518083038186803b15801561272957600080fd5b505afa15801561273d573d6000803e3d6000fd5b505050506040513d601f19601f8201168201806040525081019061276191906138fb565b6127a0576040517f08c379a000000000000000000000000000000000000000000000000000000000815260040161279790614593565b60405180910390fd5b3073ffffffffffffffffffffffffffffffffffffffff168173ffffffffffffffffffffffffffffffffffffffff1614156127e3576127de8183612d42565b6127ee565b6127ed8183612f1c565b5b34600e60008282546128009190614890565b925050819055505050565b6000600660009054906101000a900473ffffffffffffffffffffffffffffffffffffffff16905081600660006101000a81548173ffffffffffffffffffffffffffffffffffffffff021916908373ffffffffffffffffffffffffffffffffffffffff1602179055508173ffffffffffffffffffffffffffffffffffffffff168173ffffffffffffffffffffffffffffffffffffffff167f8be0079c531659141344cd1fd0a4f28419497f9722a3daafe3b4186f6b6457e060405160405180910390a35050565b8173ffffffffffffffffffffffffffffffffffffffff168373ffffffffffffffffffffffffffffffffffffffff161415612940576040517f08c379a0000000000000000000000000000000000000000000000000000000008152600401612937906145d3565b60405180910390fd5b80600560008573ffffffffffffffffffffffffffffffffffffffff1673ffffffffffffffffffffffffffffffffffffffff16815260200190815260200160002060008473ffffffffffffffffffffffffffffffffffffffff1673ffffffffffffffffffffffffffffffffffffffff16815260200190815260200160002060006101000a81548160ff0219169083151502179055508173ffffffffffffffffffffffffffffffffffffffff168373ffffffffffffffffffffffffffffffffffffffff167f17307eab39ab6107e8899845ad3d59bd9653f200f220920489ca2b5937696c3183604051612a31919061439e565b60405180910390a3505050565b612a498484846122c6565b612a5584848484612f3a565b612a94576040517f08c379a0000000000000000000000000000000000000000000000000000000008152600401612a8b906144f3565b60405180910390fd5b50505050565b6060600082511415612abd57604051806020016040528060008152509050612bf9565b6000604051806060016040528060408152602001615d3b6040913990506000600360028551612aec9190614890565b612af691906148e6565b6004612b029190614917565b67ffffffffffffffff811115612b1b57612b1a614c40565b5b6040519080825280601f01601f191660200182016040528015612b4d5781602001600182028036833780820191505090505b509050600182016020820185865187015b80821015612bb9576003820191508151603f8160121c168501518453600184019350603f81600c1c168501518453600184019350603f8160061c168501518453600184019350603f8116850151845360018401935050612b5e565b5050600386510660018114612bd55760028114612be857612bf0565b603d6001830353603d6002830353612bf0565b603d60018303535b50505080925050505b919050565b612c0b878585858561116d565b612c1586306126b6565b60016011600089815260200190815260200160002060006101000a81548160ff021916908315150217905550600c60009054906101000a900473ffffffffffffffffffffffffffffffffffffffff1673ffffffffffffffffffffffffffffffffffffffff16638a4315788787600067ffffffffffffffff811115612c9c57612c9b614c40565b5b604051908082528060200260200182016040528015612cca5781602001602082028036833780820191505090505b506040518463ffffffff1660e01b8152600401612ce99392919061476e565b600060405180830381600087803b158015612d0357600080fd5b505af1158015612d17573d6000803e3d6000fd5b50505050612d248661252d565b50505050505050565b612d388383836130d1565b505050565b505050565b600073ffffffffffffffffffffffffffffffffffffffff168273ffffffffffffffffffffffffffffffffffffffff161415612db2576040517f08c379a0000000000000000000000000000000000000000000000000000000008152600401612da990614633565b60405180910390fd5b612dbb8161264a565b15612dfb576040517f08c379a0000000000000000000000000000000000000000000000000000000008152600401612df290614573565b60405180910390fd5b612e0760008383612d2d565b6001600360008473ffffffffffffffffffffffffffffffffffffffff1673ffffffffffffffffffffffffffffffffffffffff1681526020019081526020016000206000828254612e579190614890565b92505081905550816002600083815260200190815260200160002060006101000a81548173ffffffffffffffffffffffffffffffffffffffff021916908373ffffffffffffffffffffffffffffffffffffffff160217905550808273ffffffffffffffffffffffffffffffffffffffff16600073ffffffffffffffffffffffffffffffffffffffff167fddf252ad1be2c89b69c2b068fc378daa952ba7f163c4a11628f55a4df523b3ef60405160405180910390a4612f1860008383612d3d565b5050565b612f368282604051806020016040528060008152506131e5565b5050565b6000612f5b8473ffffffffffffffffffffffffffffffffffffffff16613240565b156130c4578373ffffffffffffffffffffffffffffffffffffffff1663150b7a02612f84611fb5565b8786866040518563ffffffff1660e01b8152600401612fa69493929190614352565b602060405180830381600087803b158015612fc057600080fd5b505af1925050508015612ff157506040513d601f19601f82011682018060405250810190612fee9190613982565b60015b613074573d8060008114613021576040519150601f19603f3d011682016040523d82523d6000602084013e613026565b606091505b5060008151141561306c576040517f08c379a0000000000000000000000000000000000000000000000000000000008152600401613063906144f3565b60405180910390fd5b805181602001fd5b63150b7a0260e01b7bffffffffffffffffffffffffffffffffffffffffffffffffffffffff1916817bffffffffffffffffffffffffffffffffffffffffffffffffffffffff1916149150506130c9565b600190505b949350505050565b6130dc838383613263565b600073ffffffffffffffffffffffffffffffffffffffff168373ffffffffffffffffffffffffffffffffffffffff16141561311f5761311a81613268565b61315e565b8173ffffffffffffffffffffffffffffffffffffffff168373ffffffffffffffffffffffffffffffffffffffff161461315d5761315c83826132b1565b5b5b600073ffffffffffffffffffffffffffffffffffffffff168273ffffffffffffffffffffffffffffffffffffffff1614156131a15761319c8161341e565b6131e0565b8273ffffffffffffffffffffffffffffffffffffffff168273ffffffffffffffffffffffffffffffffffffffff16146131df576131de82826134ef565b5b5b505050565b6131ef8383612d42565b6131fc6000848484612f3a565b61323b576040517f08c379a0000000000000000000000000000000000000000000000000000000008152600401613232906144f3565b60405180910390fd5b505050565b6000808273ffffffffffffffffffffffffffffffffffffffff163b119050919050565b505050565b600980549050600a600083815260200190815260200160002081905550600981908060018154018082558091505060019003906000526020600020016000909190919091505550565b600060016132be8461170a565b6132c89190614971565b90506000600860008481526020019081526020016000205490508181146133ad576000600760008673ffffffffffffffffffffffffffffffffffffffff1673ffffffffffffffffffffffffffffffffffffffff168152602001908152602001600020600084815260200190815260200160002054905080600760008773ffffffffffffffffffffffffffffffffffffffff1673ffffffffffffffffffffffffffffffffffffffff168152602001908152602001600020600084815260200190815260200160002081905550816008600083815260200190815260200160002081905550505b6008600084815260200190815260200160002060009055600760008573ffffffffffffffffffffffffffffffffffffffff1673ffffffffffffffffffffffffffffffffffffffff16815260200190815260200160002060008381526020019081526020016000206000905550505050565b600060016009805490506134329190614971565b90506000600a600084815260200190815260200160002054905060006009838154811061346257613461614c11565b5b90600052602060002001549050806009838154811061348457613483614c11565b5b906000526020600020018190555081600a600083815260200190815260200160002081905550600a60008581526020019081526020016000206000905560098054806134d3576134d2614be2565b5b6001900381819060005260206000200160009055905550505050565b60006134fa8361170a565b905081600760008573ffffffffffffffffffffffffffffffffffffffff1673ffffffffffffffffffffffffffffffffffffffff168152602001908152602001600020600083815260200190815260200160002081905550806008600084815260200190815260200160002081905550505050565b600061358161357c846147d8565b6147b3565b90508281526020810184848401111561359d5761359c614c74565b5b6135a8848285614a78565b509392505050565b60006135c36135be846147d8565b6147b3565b9050828152602081018484840111156135df576135de614c74565b5b6135ea848285614a87565b509392505050565b600081359050613601816154ad565b92915050565b600081519050613616816154ad565b92915050565b60008135905061362b816154c4565b92915050565b600081519050613640816154c4565b92915050565b600081359050613655816154db565b92915050565b60008135905061366a816154f2565b92915050565b60008151905061367f816154f2565b92915050565b600082601f83011261369a57613699614c6f565b5b81356136aa84826020860161356e565b91505092915050565b600082601f8301126136c8576136c7614c6f565b5b81516136d88482602086016135b0565b91505092915050565b6000813590506136f081615509565b92915050565b60008135905061370581615520565b92915050565b60006020828403121561372157613720614c7e565b5b600061372f848285016135f2565b91505092915050565b60006020828403121561374e5761374d614c7e565b5b600061375c84828501613607565b91505092915050565b6000806040838503121561377c5761377b614c7e565b5b600061378a858286016135f2565b925050602061379b858286016135f2565b9150509250929050565b6000806000606084860312156137be576137bd614c7e565b5b60006137cc868287016135f2565b93505060206137dd868287016135f2565b92505060406137ee868287016136e1565b9150509250925092565b6000806000806080858703121561381257613811614c7e565b5b6000613820878288016135f2565b9450506020613831878288016135f2565b9350506040613842878288016136e1565b925050606085013567ffffffffffffffff81111561386357613862614c79565b5b61386f87828801613685565b91505092959194509250565b6000806040838503121561389257613891614c7e565b5b60006138a0858286016135f2565b92505060206138b18582860161361c565b9150509250929050565b600080604083850312156138d2576138d1614c7e565b5b60006138e0858286016135f2565b92505060206138f1858286016136e1565b9150509250929050565b60006020828403121561391157613910614c7e565b5b600061391f84828501613631565b91505092915050565b60006020828403121561393e5761393d614c7e565b5b600061394c84828501613646565b91505092915050565b60006020828403121561396b5761396a614c7e565b5b60006139798482850161365b565b91505092915050565b60006020828403121561399857613997614c7e565b5b60006139a684828501613670565b91505092915050565b6000602082840312156139c5576139c4614c7e565b5b600082015167ffffffffffffffff8111156139e3576139e2614c79565b5b6139ef848285016136b3565b91505092915050565b600060208284031215613a0e57613a0d614c7e565b5b6000613a1c848285016136e1565b91505092915050565b600080600080600060a08688031215613a4157613a40614c7e565b5b6000613a4f888289016136e1565b9550506020613a6088828901613646565b9450506040613a71888289016136f6565b9350506060613a8288828901613646565b9250506080613a9388828901613646565b9150509295509295909350565b60008060408385031215613ab757613ab6614c7e565b5b6000613ac5858286016136e1565b925050602083013567ffffffffffffffff811115613ae657613ae5614c79565b5b613af285828601613685565b9150509250929050565b60008060408385031215613b1357613b12614c7e565b5b6000613b21858286016136e1565b9250506020613b32858286016136e1565b9150509250929050565b60008060008060008060c08789031215613b5957613b58614c7e565b5b6000613b6789828a016136e1565b9650506020613b7889828a016136e1565b9550506040613b8989828a01613646565b9450506060613b9a89828a016136f6565b9350506080613bab89828a01613646565b92505060a0613bbc89828a01613646565b9150509295509295509295565b600080600080600080600060e0888a031215613be857613be7614c7e565b5b6000613bf68a828b016136e1565b9750506020613c078a828b016136e1565b965050604088013567ffffffffffffffff811115613c2857613c27614c79565b5b613c348a828b01613685565b9550506060613c458a828b01613646565b9450506080613c568a828b016136f6565b93505060a0613c678a828b01613646565b92505060c0613c788a828b01613646565b91505092959891949750929550565b6000613c93838361421e565b60208301905092915050565b613ca8816149a5565b82525050565b613cbf613cba826149a5565b614b1d565b82525050565b6000613cd082614819565b613cda8185614847565b9350613ce583614809565b8060005b83811015613d16578151613cfd8882613c87565b9750613d088361483a565b925050600181019050613ce9565b5085935050505092915050565b613d2c816149b7565b82525050565b613d3b816149c3565b82525050565b613d52613d4d826149c3565b614b2f565b82525050565b6000613d6382614824565b613d6d8185614858565b9350613d7d818560208601614a87565b613d8681614c83565b840191505092915050565b6000613d9c82614824565b613da68185614869565b9350613db6818560208601614a87565b80840191505092915050565b613dcb81614a30565b82525050565b613dda81614a42565b82525050565b6000613deb8261482f565b613df58185614874565b9350613e05818560208601614a87565b613e0e81614c83565b840191505092915050565b6000613e248261482f565b613e2e8185614885565b9350613e3e818560208601614a87565b80840191505092915050565b6000613e57603083614874565b9150613e6282614ca1565b604082019050919050565b6000613e7a602e83614874565b9150613e8582614cf0565b604082019050919050565b6000613e9d601c83614885565b9150613ea882614d3f565b601c82019050919050565b6000613ec0602b83614874565b9150613ecb82614d68565b604082019050919050565b6000613ee3603283614874565b9150613eee82614db7565b604082019050919050565b6000613f06601e83614874565b9150613f1182614e06565b602082019050919050565b6000613f29602683614874565b9150613f3482614e2f565b604082019050919050565b6000613f4c602583614874565b9150613f5782614e7e565b604082019050919050565b6000613f6f601c83614874565b9150613f7a82614ecd565b602082019050919050565b6000613f92603783614885565b9150613f9d82614ef6565b603782019050919050565b6000613fb5602083614874565b9150613fc082614f45565b602082019050919050565b6000613fd8602483614874565b9150613fe382614f6e565b604082019050919050565b6000613ffb601983614874565b915061400682614fbd565b602082019050919050565b600061401e603183614885565b915061402982614fe6565b603182019050919050565b6000614041602983614874565b915061404c82615035565b604082019050919050565b6000614064603e83614874565b915061406f82615084565b604082019050919050565b6000614087602083614874565b9150614092826150d3565b602082019050919050565b60006140aa600383614885565b91506140b5826150fc565b600382019050919050565b60006140cd602083614874565b91506140d882615125565b602082019050919050565b60006140f060cb83614885565b91506140fb8261514e565b60cb82019050919050565b6000614113601883614874565b915061411e8261525b565b602082019050919050565b6000614136602183614874565b915061414182615284565b604082019050919050565b6000614159604183614874565b9150614164826152d3565b606082019050919050565b600061417c601d83614885565b915061418782615348565b601d82019050919050565b600061419f602c83614874565b91506141aa82615371565b604082019050919050565b60006141c2603c83614874565b91506141cd826153c0565b604082019050919050565b60006141e5602b83614874565b91506141f08261540f565b604082019050919050565b6000614208602e83614874565b91506142138261545e565b604082019050919050565b61422781614a19565b82525050565b61423681614a19565b82525050565b61424d61424882614a19565b614b4b565b82525050565b61425c81614a23565b82525050565b600061426e8285613cae565b60148201915061427e828461423c565b6020820191508190509392505050565b600061429982613e90565b91506142a58284613d41565b60208201915081905092915050565b60006142bf826140e3565b91506142cb8286613d91565b91506142d682613f85565b91506142e28285613e19565b91506142ed82614011565b91506142f98284613cae565b6014820191506143088261409d565b9150819050949350505050565b60006143208261416f565b915061432c8284613e19565b915081905092915050565b600060208201905061434c6000830184613c9f565b92915050565b60006080820190506143676000830187613c9f565b6143746020830186613c9f565b614381604083018561422d565b81810360608301526143938184613d58565b905095945050505050565b60006020820190506143b36000830184613d23565b92915050565b60006020820190506143ce6000830184613d32565b92915050565b60006080820190506143e96000830187613d32565b6143f66020830186614253565b6144036040830185613d32565b6144106060830184613d32565b95945050505050565b600060208201905081810360008301526144338184613d58565b905092915050565b60006020820190506144506000830184613dc2565b92915050565b600060208201905061446b6000830184613dd1565b92915050565b6000602082019050818103600083015261448b8184613de0565b905092915050565b600060208201905081810360008301526144ac81613e4a565b9050919050565b600060208201905081810360008301526144cc81613e6d565b9050919050565b600060208201905081810360008301526144ec81613eb3565b9050919050565b6000602082019050818103600083015261450c81613ed6565b9050919050565b6000602082019050818103600083015261452c81613ef9565b9050919050565b6000602082019050818103600083015261454c81613f1c565b9050919050565b6000602082019050818103600083015261456c81613f3f565b9050919050565b6000602082019050818103600083015261458c81613f62565b9050919050565b600060208201905081810360008301526145ac81613fa8565b9050919050565b600060208201905081810360008301526145cc81613fcb565b9050919050565b600060208201905081810360008301526145ec81613fee565b9050919050565b6000602082019050818103600083015261460c81614034565b9050919050565b6000602082019050818103600083015261462c81614057565b9050919050565b6000602082019050818103600083015261464c8161407a565b9050919050565b6000602082019050818103600083015261466c816140c0565b9050919050565b6000602082019050818103600083015261468c81614106565b9050919050565b600060208201905081810360008301526146ac81614129565b9050919050565b600060208201905081810360008301526146cc8161414c565b9050919050565b600060208201905081810360008301526146ec81614192565b9050919050565b6000602082019050818103600083015261470c816141b5565b9050919050565b6000602082019050818103600083015261472c816141d8565b9050919050565b6000602082019050818103600083015261474c816141fb565b9050919050565b6000602082019050614768600083018461422d565b92915050565b6000606082019050614783600083018661422d565b81810360208301526147958185613d58565b905081810360408301526147a98184613cc5565b9050949350505050565b60006147bd6147ce565b90506147c98282614aec565b919050565b6000604051905090565b600067ffffffffffffffff8211156147f3576147f2614c40565b5b6147fc82614c83565b9050602081019050919050565b6000819050602082019050919050565b600081519050919050565b600081519050919050565b600081519050919050565b6000602082019050919050565b600082825260208201905092915050565b600082825260208201905092915050565b600081905092915050565b600082825260208201905092915050565b600081905092915050565b600061489b82614a19565b91506148a683614a19565b9250827fffffffffffffffffffffffffffffffffffffffffffffffffffffffffffffffff038211156148db576148da614b55565b5b828201905092915050565b60006148f182614a19565b91506148fc83614a19565b92508261490c5761490b614b84565b5b828204905092915050565b600061492282614a19565b915061492d83614a19565b9250817fffffffffffffffffffffffffffffffffffffffffffffffffffffffffffffffff048311821515161561496657614965614b55565b5b828202905092915050565b600061497c82614a19565b915061498783614a19565b92508282101561499a57614999614b55565b5b828203905092915050565b60006149b0826149f9565b9050919050565b60008115159050919050565b6000819050919050565b60007fffffffff0000000000000000000000000000000000000000000000000000000082169050919050565b600073ffffffffffffffffffffffffffffffffffffffff82169050919050565b6000819050919050565b600060ff82169050919050565b6000614a3b82614a54565b9050919050565b6000614a4d82614a54565b9050919050565b6000614a5f82614a66565b9050919050565b6000614a71826149f9565b9050919050565b82818337600083830152505050565b60005b83811015614aa5578082015181840152602081019050614a8a565b83811115614ab4576000848401525b50505050565b60006002820490506001821680614ad257607f821691505b60208210811415614ae657614ae5614bb3565b5b50919050565b614af582614c83565b810181811067ffffffffffffffff82111715614b1457614b13614c40565b5b80604052505050565b6000614b2882614b39565b9050919050565b6000819050919050565b6000614b4482614c94565b9050919050565b6000819050919050565b7f4e487b7100000000000000000000000000000000000000000000000000000000600052601160045260246000fd5b7f4e487b7100000000000000000000000000000000000000000000000000000000600052601260045260246000fd5b7f4e487b7100000000000000000000000000000000000000000000000000000000600052602260045260246000fd5b7f4e487b7100000000000000000000000000000000000000000000000000000000600052603160045260246000fd5b7f4e487b7100000000000000000000000000000000000000000000000000000000600052603260045260246000fd5b7f4e487b7100000000000000000000000000000000000000000000000000000000600052604160045260246000fd5b600080fd5b600080fd5b600080fd5b600080fd5b6000601f19601f8301169050919050565b60008160601b9050919050565b7f4f6e6c792074686520726f7574696e6720636f6e74726163742063616e20636160008201527f6c6c20746869732066756e6374696f6e00000000000000000000000000000000602082015250565b7f546865726520617265206e6f20756e6d696e74656420726f7574656420746f6b60008201527f656e2069647320746f206d696e74000000000000000000000000000000000000602082015250565b7f19457468657265756d205369676e6564204d6573736167653a0a333200000000600082015250565b7f455243373231456e756d657261626c653a206f776e657220696e646578206f7560008201527f74206f6620626f756e6473000000000000000000000000000000000000000000602082015250565b7f4552433732313a207472616e7366657220746f206e6f6e20455243373231526560008201527f63656976657220696d706c656d656e7465720000000000000000000000000000602082015250565b7f596f75206d757374207061792065786163746c79206d696e7420636f73740000600082015250565b7f4f776e61626c653a206e6577206f776e657220697320746865207a65726f206160008201527f6464726573730000000000000000000000000000000000000000000000000000602082015250565b7f4552433732313a207472616e736665722066726f6d20696e636f72726563742060008201527f6f776e6572000000000000000000000000000000000000000000000000000000602082015250565b7f4552433732313a20746f6b656e20616c7265616479206d696e74656400000000600082015250565b7f222c2261747472696275746573223a205b7b2274726169745f74797065223a2060008201527f225075626c6963204b6579222c202276616c7565223a20000000000000000000602082015250565b7f5468697320504b5020686173206e6f74206265656e20726f7574656420796574600082015250565b7f4552433732313a207472616e7366657220746f20746865207a65726f2061646460008201527f7265737300000000000000000000000000000000000000000000000000000000602082015250565b7f4552433732313a20617070726f766520746f2063616c6c657200000000000000600082015250565b7f7d2c207b2274726169745f74797065223a20224554482057616c6c657420416460008201527f6472657373222c202276616c7565223a20000000000000000000000000000000602082015250565b7f4552433732313a2061646472657373207a65726f206973206e6f74206120766160008201527f6c6964206f776e65720000000000000000000000000000000000000000000000602082015250565b7f4552433732313a20617070726f76652063616c6c6572206973206e6f7420746f60008201527f6b656e206f776e6572206e6f7220617070726f76656420666f7220616c6c0000602082015250565b7f4552433732313a206d696e7420746f20746865207a65726f2061646472657373600082015250565b7f7d5d7d0000000000000000000000000000000000000000000000000000000000600082015250565b7f4f776e61626c653a2063616c6c6572206973206e6f7420746865206f776e6572600082015250565b7f7b226e616d65223a20224c69742050726f746f636f6c2050726f6772616d6d6160008201527f626c65204b65792050616972222c20226465736372697074696f6e223a20225460208201527f686973204e465420656e7469746c65732074686520686f6c64657220746f207560408201527f73652061204c69742050726f746f636f6c20504b502c20616e6420746f20677260608201527f616e742061636365737320746f206f7468657220757365727320616e64204c6960808201527f7420416374696f6e7320746f20757365207468697320504b50222c2022696d6160a08201527f67655f64617461223a202200000000000000000000000000000000000000000060c082015250565b7f4552433732313a20696e76616c696420746f6b656e2049440000000000000000600082015250565b7f4552433732313a20617070726f76616c20746f2063757272656e74206f776e6560008201527f7200000000000000000000000000000000000000000000000000000000000000602082015250565b7f5468697320667265654d696e7420776173206e6f74207369676e65642062792060008201527f667265654d696e745369676e65722e2020486f7720656d626172617373696e6760208201527f2e00000000000000000000000000000000000000000000000000000000000000604082015250565b7f646174613a6170706c69636174696f6e2f6a736f6e3b6261736536342c000000600082015250565b7f455243373231456e756d657261626c653a20676c6f62616c20696e646578206f60008201527f7574206f6620626f756e64730000000000000000000000000000000000000000602082015250565b7f546865206d736748617368206973206e6f7420612068617368206f662074686560008201527f20746f6b656e49642e20204578706c61696e20796f757273656c662100000000602082015250565b7f546869732066726565206d696e742049442068617320616c726561647920626560008201527f656e2072656465656d6564000000000000000000000000000000000000000000602082015250565b7f4552433732313a2063616c6c6572206973206e6f7420746f6b656e206f776e6560008201527f72206e6f7220617070726f766564000000000000000000000000000000000000602082015250565b6154b6816149a5565b81146154c157600080fd5b50565b6154cd816149b7565b81146154d857600080fd5b50565b6154e4816149c3565b81146154ef57600080fd5b50565b6154fb816149cd565b811461550657600080fd5b50565b61551281614a19565b811461551d57600080fd5b50565b61552981614a23565b811461553457600080fd5b5056fe3c73766720786d6c6e733d27687474703a2f2f7777772e77332e6f72672f323030302f737667272076696577426f783d2730203020313030203130302720786d6c6e733a763d2768747470733a2f2f76656374612e696f2f6e616e6f273e3c7061746820643d274d35302e362037332e33632d31372e372d2e312d31392d31362e362d31372e352d32302e342030203020312e3120382e382031312e3120362e3620392e392d322e3220342e392d31372e3120342e372d31372e362e312e3120312e3920312e3820332e3420342e3120312e3620322e34203220362e3420312e352031302d2e3520332e352d2e3220382e3420362e3220362e3620372e392d322e3220372e322d31342e3620372e322d31342e3620332e3620342e3120332e392032352e342d31362e362032352e337a272066696c6c3d2723666564343238272f3e3c7061746820643d274d36342e312033382e36632d2e3420322e392e3620382e352e322031322d2e3320322e392d312e3820352e312d332e3120352e372d312e322e362d32202e322d322d2e382d2e312d312e312e372d33202e362d342e362d2e312d322d312e332d342e332d312e332d342e336c2e372d312e332e362e396132352e39332032352e3933203020302031202e3820312e3373312e322d372e3420332e332d31312e3663312e352d3320352e322d342e3220352e342d342e332d322e3920312e372d342e3720332e342d352e3220377a272066696c6c3d2723633630343034272f3e3c7061746820643d274d36322033372e366c2d312e3320342e32632d2e3620312e382d312e3520332e362d312e3520332e366c2d2e3720312e33732d312d322d322e312d332e356c2d322e332d332e31732e322d2e362e342d312e366c2e392e37732e362d322e312e372d352e32632e312d322e362d2e372d352e362d2e372d352e362031202e3820322e3620322e3320332e3720332e3820312e3420312e3720322e3920352e3420322e3920352e347a272066696c6c3d2723613730633063272f3e3c7061746820643d274d34342e33203530632d2e312e322d3320342e382d372e3420322e322d2e382d2e352d312e342d312d312e382d312e372d322e362d34202e372d31302e382e382d31312e32762e312e312e31632d2e3320312e372d312e3320382e3620312e332031302e352e312e312e322e312e332e322e322e312e332e322e352e3320322e3420312e3120342e332e3520352e342030202e312030202e312d2e312e322d2e312e342d2e332e362d2e352e372d2e357a272066696c6c3d2723613430613061272f3e3c7061746820643d274d35362e32203334632d2e3120332e312d2e3720352e322d2e3720352e326c2d2e392d2e37632e332d312e312e362d322e372e372d342e322e332d332e332d2e372d362e352d2e372d362e35732e332e332e382e37632e312030202e3920322e392e3820352e357a4d34342e33203530632d2e3120302d2e332e322d2e372e352d2e3120302d2e312e312d2e322e312d312e312e352d3320312e312d352e3420302d2e322d2e312d2e332d2e322d2e352d2e332d2e312d2e312d2e322d2e312d2e332d2e322d322e362d312e392d312e362d382e392d312e332d31302e352d2e3120312e322d2e3520352e3520312e3320382e33203220332e3220372e3120322e3120372e3120322e317a6d32372d342e35632d322e342d342e392d322e342d382e372d322e342d31302e3520302d312e3920312e332d332e3420312e332d332e34732d2e3420302d2e392e31632d312e312e332d332e332e382d342e3320312e372d322e3320322d322e3920342e322d322e3920342e32732d2e3720322e342d312e3320342e322d312e3520332e362d312e3520332e366c2e362e396132352e39332032352e3933203020302031202e3820312e335336312e392034302e3220363420333663312e352d3320352e322d342e3220352e342d342e332d3320312e352d342e3820332e322d352e3220362e392d2e3420322e392e3620382e352e322031322d2e3320322e392d312e3820352e312d332e3120352e372d312e322e362d32202e322d322d2e382d2e312d312e312e372d33202e362d342e362d2e312d322d312e332d342e332d312e332d342e33732d312d322d322e312d332e354c35342e32203430732d342d332e392d332e322d392e38632e362d3520342e382d382e3120352d382e332d2e342e312d3620312e332d392e3420362e332d322e3820342e312d332e3220382e332d312e382031332e3920312e3220352d2e3420372e382d2e3420372e382d2e312e322d3320342e382d372e3420322e322d2e382d2e352d312e342d312d312e382d312e372d322e362d34202e372d31302e382e382d31312e32203020302d392e3320372e312d392e332031362e34203020392e3820372e382032322e342032332e342032322e3420313820302032332e322d31352e332032332e352d3230202e332d34202e322d372e352d322e332d31322e357a4d35302e362037332e33632d31372e372d2e312d31392d31362e362d31372e352d32302e342030203020312e3120382e382031312e3120362e3620392e392d322e3220342e392d31372e3120342e372d31372e362e312e3120312e3920312e3820332e3420342e3120312e3620322e34203220362e3420312e352031302d2e3520332e352d2e3220382e3420362e3220362e3620372e392d322e3220372e322d31342e3620372e322d31342e3620332e3620342e3120332e392032352e342d31362e362032352e337a272066696c6c3d2723663132643264272f3e3c2f7376673e4142434445464748494a4b4c4d4e4f505152535455565758595a6162636465666768696a6b6c6d6e6f707172737475767778797a303132333435363738392b2fa264697066735822122064bce615d4fe5b6f7c1bbb54221a3d0f2b5fc866d62ec04d426a8385523ae4b564736f6c63430008070033",
  "linkReferences": {},
  "deployedLinkReferences": {}
}